S0140000466C6173685F547269676765722E733337BF
S113000000100020A5020000D1020000D10200006F
S1130010D1020000D1020000D1020000D102000090
S1130020D1020000D1020000D1020000D102000080
S1130030D1020000D1020000D1020000DD0F000057
S1130040D1020000D1020000D1020000D102000060
S1130050D1020000D1020000D1020000D102000050
S1130060D1020000D1020000D1020000D102000040
S1130070D1020000D1020000D1020000D102000030
S1130080D1020000D1020000D1020000D102000020
S1130090D1020000D1020000D102000010B5054CCD
S11300A0237833B9044B13B10448AFF30080012320
S11300B0237010BD7800002000000000AC13000085
S11300C0084B10B51BB108480849AFF30080084835
S11300D0036803B910BD074B002BFBD0BDE81040EB
S11300E0184700BF00000000AC1300007C00002093
S11300F07400002000000000154B002B08BF134BB8
S11301009D46A3F5803A00218B460F461348144AB6
S1130110121A01F005F80F4B002B00D098470E4B34
S1130120002B00D098470020002104000D000D484A
S1130130002802D00C48AFF3008000F0CBFF200071
S1130140290000F06FFF00F0B1FF00BF00000800BD
S113015000100020000000000000000078000020D3
S113016098000020000000000000000080B582B06C
S113017000AF384A374B5B6C43F040035364364A54
S1130180354BD3F8203143F00403C2F82031324A0E
S1130190314BD3F8203123F4407343F48073C2F815
S11301A020312D4A2C4B1B6D23F0704313652A4AD2
S11301B0294B1B6D43F080431365264B10221A62B2
S11301C000BF244BDB6A03F02003002BF9D0234A41
S11301D0224B1B6843F001031360204A1F4BDB686A
S11301E043F08073D3601E4B1E4A1A601E4800F011
S11301F005FB034603F5D52303F2FC437B607B68D0
S1130200DB081A4AA2FB03239B0A3B60184A3B689B
S1130210013B1361164B0222C3F8F020144B4FF438
S11302208072C3F804234FF06043124AC3F8B02F1E
S11302304FF06043104AC3F8802E4FF060424FF0F5
S11302406043D3F8003E43F00103C2F8003E083790
S1130250BD4680BD00800C4000600040F0ED00E031
S1130260001000E0FF13014006000C001791650226
S1130270000004E055CEACC50900010080B582B091
S113028000AF4FF07E637B607B681B68002B01D15D
S1130290002302E0FFF76AFF012318460837BD4632
S11302A080BD00BF064880470649074A074B9A426B
S11302B0BEBF51F8040B42F8040BF8E7FFF71CFF2C
S11302C015040000B813000000000020780000208E
S11302D0FEE700BF80B400AF044BDB6C1B0EDBB247
S11302E01846BD465DF8047B704700BFB081E00F3F
S11302F080B582B000AF00F015F87860074B5B68FA
S113030003F00F031A467B68D3407B60044A7B6882
S113031013607B6818460837BD4680BD00800C40DA
S11303200800002080B582B000AF2F4BDB6A03F4D5
S11303307053B3F5805F0AD0B3F5005F03D0B3F513
S1130340006F08D00BE0294B1B687B6047E04FF43B
S113035000437B6043E0264B1B687B603FE0224BFD
S1130360DB6803F4E063B3F5007F1BD0B3F5007FD3
S113037005D8002B24D0B3F5807F16D02BE0B3F53D
S1130380806F09D0B3F5A06F03D0B3F5407F06D0DA
S113039021E0184B7B6021E0174B7B601EE0174B7C
S11303A07B601BE0164B7B6018E0FFF793FF03466E
S11303B0122B02D9134B7B6010E0134B7B600DE0D2
S11303C0FFF788FF0346122B02D9104B7B6005E030
S11303D00F4B7B6002E000237B6000BF00BF7B68A3
S11303E018460837BD4680BD00800C40040000203C
S11303F000000020003FAB01406F4001809FD5000A
S1130400C0D8A70040B56400C0CF6A00804F120076
S113041040420F0080B400AFBD465DF8047B7047D6
S113042080B400AF4FF400431846BD465DF8047B2A
S1130430704700BF80B400AF4FF47A731846BD46CE
S11304405DF8047B704700BF80B400AF034B1B68AA
S11304501846BD465DF8047B704700BF04000020C9
S113046080B483B000AF78603960FEE780B487B0B1
S113047000AFF860B9607A60FB6803F10473DA00D6
S1130480BB6813449B007B617B697A681A601C37E4
S1130490BD465DF8047B704780B584B000AF7860DA
S11304A07B68002B03D07B68B3F5004F04D9084860
S11304B040F29661FFF7D4FF7B68B3FA83F3C3F18C
S11304C01F03FB60FB6818461037BD4680BD00BFA4
S11304D04C11000080B400AF044BDB6C1B0EDBB28C
S11304E01846BD465DF8047B704700BFB081E00F3D
S11304F080B582B000AF244B5B6903F4E063B3F5CD
S1130500007F1CD0B3F5007F05D8002B25D0B3F5B0
S1130510807F1FD02AE0B3F5C06F24D0B3F5E06F1D
S11305201ED0B3F5407F21D1FFF7D4FF0346122B31
S113053002D9164B7B6021E0154B7B601EE0FFF770
S1130540C9FF0346122B02D9124B7B6016E0124BF3
S11305507B6013E0114B7B6010E0114B7B600DE07E
S1130560104B7B600AE0104B7B6007E00F484FF4B0
S1130570C671FFF775FF00237B6000BF7B681846D8
S11305800837BD4680BD00BF00800C40804F12007C
S113059040420F0040B56400C0CF6A00C0D8A70035
S11305A0809FD500406F4001003FAB01C4110000A3
S11305B080B582B000AF0F4800F0F8F90346FB7035
S11305C0FB78072B05D0092B07D1FFF7ABFE78602A
S11305D00BE0FFF78DFF786007E007484FF4E37105
S11305E0FFF73EFF00237B6000BF7B681846083797
S11305F0BD4680BD06000C00C411000080B584B067
S113060000AF78600023BB607B68394A934208D00E
S1130610384A934205D0384840F2B531FFF720FFFD
S113062000E000BF786800F0C1F90346FB607B6816
S11306302F4A934203D02F4A934206D00CE02F4B0B
S11306409B6A03F00303FB600CE02C4B9B6A03F0F2
S11306500C039B08FB6005E027484FF47971FFF712
S1130660FFFE00BFFB68032B34D801A252F823F02D
S11306709D06000081060000890600009106000026
S1130680FFF7CEFEB8602DE0FFF7DEFEB86029E08C
S1130690FFF72EFE03465B08BB6023E00023BB602C
S11306A07B68134A934203D07B68124A934210D169
S11306B0124B9A6A7B680E498B4201D1102300E0E9
S11306C0142322FA03F3002B03D0FFF7B3FEB86020
S11306D008E007E0084840F20E41FFF7C1FE00239E
S11306E0BB6000BFBB6818461037BD4680BD00BF65
S11306F002001A0003001C00C411000000800C401A
S113070080B483B000AF7860094B5B6D03F00103E4
S1130710002B00D006E000BF054B1A6D7B68134028
S1130720002BF9D10C37BD465DF8047B704700BF40
S113073000800C4080B586B000AF78600B46FB703B
S113074000233B617B681B0A03F00F03013B092B69
S11307502CD801A252F823F0870700008D0700006F
S113076081070000AD070000AD07000093070000FB
S11307709D070000AD070000AD070000A7070000BB
S1130780174B7B6118E0174B7B6115E0164B7B61BF
S113079012E0164B7B6101233B610DE0144B7B613E
S11307A010233B6108E0134B7B6105E012484FF4D2
S11307B0FB61FFF755FE10E07B681B0B03F01F0382
S11307C0FB603B69002B02D03869FFF799FFFB7887
S11307D07869F9681A46FFF749FE1837BD4680BDA7
S11307E040800C4008800C4044800C4058800C40F1
S11307F060800C4078800C40C411000090B585B036
S113080000AF78607B6803F47813B3F5A01F58D069
S1130810B3F5A01F17D8B3F5802F2FD0B3F5802FD1
S113082005D8002B26D0B3F5003F33D0A8E0B3F5AC
S1130830602F00F0A180B3F5801F34D0B3F5402FB2
S113084000F096809CE0B3F5E01F7FD0B3F5E01F85
S113085006D8B3F5B01F7ED0B3F5D01F1ED08FE0FD
S1130860B3F5201F4ED0B3F5281F62D0B3F5181F7F
S113087035D085E0FFF756FDF86089E0FFF752FDBB
S1130880F860464B9B6803F00F031A46FB68D3409D
S1130890FB607DE0FFF72CFDF86079E04048FFF74E
S11308A0ADFEF86074E03E48FFF7A8FEF8603B4BED
S11308B09B6E03F0F0031B091A46FB68D340FB60F0
S11308C066E03748FFF79AFEF860344B9B6E03F4FA
S11308D070631B0A1A46FB68D340FB6058E030483B
S11308E0FFF78CFEF8602D4B9B6E03F440531C0BFA
S11308F01020FFF7D1FD034623441A46FB68D3407A
S1130900FB6045E02648FFF779FEF860234B9B6EB9
S113091003F440531B0B1A46FB68D340FB601F4B88
S1130920DB6F03F007030133FA68B2FBF3F3FB60F8
S11309302EE01B48FFF762FEF860184B9B6E03F035
S113094003031A46FB68D340FB6021E01548FFF718
S113095055FEF8601CE01348FFF750FEF8600F4B9B
S11309601B6F03F003031A46FB68D340FB600FE0E0
S1130970FFF71EFEF8600BE0FFF7BAFDF86007E032
S1130980094840F6CC01FFF76BFD0023FB6000BF74
S1130990FB6818461437BD4690BD00BF00800C406C
S11309A002001A0003001C00C411000080B584B0CA
S11309B000AF78600123FB737B6803F00F03BB6017
S11309C0BB68013B052B77D801A252F823F000BF86
S11309D0E90900001F0A00005B0A0000B90A0000D0
S11309E0B90A0000970A00003A4BDB6A03F470531B
S11309F0B3F5805F09D0B3F5005F03D0B3F5006FA2
S1130A0006D008E00223FB7308E00323FB7305E030
S1130A100423FB7302E00523FB7300BF54E02D4B5A
S1130A209B6A03F00303022B06D0032B07D0012B90
S1130A3008D10323FB730FE00223FB730CE00623AE
S1130A40FB7309E0234B9B6A03F48033002B02D031
S1130A500A23FB7300E000BF36E01E4B9B6A03F0E1
S1130A600C03082B06D00C2B07D0042B08D103232E
S1130A70FB730FE00223FB730CE00623FB7309E016
S1130A80144B9B6A03F48013002B02D00A23FB73DC
S1130A9000E000BF18E00F4B1B6803F08053002BED
S1130AA003D0B3F1805F03D00EE00723FB7302E0B1
S1130AB00923FB7300BF07E007484FF44761FFF7C2
S1130AC0CFFC0023FB7300BFFB7B18461037BD46E9
S1130AD080BD00BF00800C40C411000080B582B00E
S1130AE000AF03463960FB71FB79002B1ED0FB7904
S1130AF0012B18D0FB79022B12D0FB79032B0CD0DD
S1130B00FB79042B06D0FB79052B01D13F230FE0A1
S1130B1000230DE04FF6F0730AE040F2FF1307E004
S1130B204FF6FF7304E047F6F81301E04FF27F73CA
S1130B303A68134103F00103002B04D10A4840F240
S1130B405931FFF78DFC0949FA793B68012000FA15
S1130B5003F318461346DB0013449B000B44103385
S1130B6058600837BD4680BD3C120000006000405C
S1130B7080B582B000AF03463960FB71FB79002B6E
S1130B801ED0FB79012B18D0FB79022B12D0FB79F4
S1130B90032B0CD0FB79042B06D0FB79052B01D158
S1130BA03F230FE000230DE04FF6F0730AE040F21C
S1130BB0FF1307E04FF6FF7304E047F6F81301E074
S1130BC04FF27F733A68134103F00103002B04D101
S1130BD00A4840F28631FFF743FC0949FA793B6839
S1130BE0012000FA03F318461346DB0013449B006C
S1130BF00B44103318600837BD4680BD3C1200001A
S1130C000060004090B585B000AFB9607B600346DA
S1130C10FB731346BB73FB7B002B1ED0FB7B012BAA
S1130C2018D0FB7B022B12D0FB7B032B0CD0FB7B5D
S1130C30042B06D0FB7B052B01D13F230FE00023BF
S1130C400DE04FF6F0730AE040F2FF1307E04FF6B1
S1130C50FF7304E047F6F81301E04FF27F73BA68BC
S1130C60134103F00103002B04D137484FF485717D
S1130C70FFF7F6FBBB7B002B0DD07B68002B05D068
S1130C80FB7B1846B968FFF773FF04E0FB7B18464B
S1130C90B968FFF723FFBB68072B1CD82B4CFA7BE2
S1130CA02A48F97B0B46DB000B449B00034459683C
S1130CB0BB689B0018460F238340DB430B40B97B82
S1130CC0B8688000814019431346DB0013449B003D
S1130CD02344596024E01D4CFA7B1C48F97B0B46E5
S1130CE0DB000B449B00034408331968BB6803F121
S1130CF08043083B9B0018460F238340DB43194085
S1130D00B87BBB6803F18043083B9B0000FA03F304
S1130D1019431346DB0013449B0023440833196032
S1130D20BB7B002B0DD17B68002B05D0FB7B1846C9
S1130D30B968FFF71DFF04E0FB7B1846B968FFF7AD
S1130D40CDFE1437BD4690BDB412000000600040D3
S1130D5080B483B000AF03463960FB7197F9073064
S1130D60002B0BDA0D49FB7903F00F03043B3A68BF
S1130D70D2B25201D2B20B441A7609E0084997F96B
S1130D8007303A68D2B25201D2B20B4483F800233E
S1130D900C37BD465DF8047B704700BF00ED00E0F2
S1130DA000E100E080B582B000AF78607B68013B71
S1130DB0B3F1807F01D301230FE00A4A7B68013B32
S1130DC053604FF0FF300721FFF7C2FF054B0022AD
S1130DD09A60044B07221A60002318460837BD4660
S1130DE080BD00BF10E000E080B485B000AF786043
S1130DF039607B6803F10473DA003B6813449B0099
S1130E00FB60FB681B6818461437BD465DF8047B1D
S1130E10704700BF80B582B000AF03463960FB71F4
S1130E20FB79002B1ED0FB79012B18D0FB79022B08
S1130E3012D0FB79032B0CD0FB79042B06D0FB7961
S1130E40052B01D13F230FE000230DE04FF6F07393
S1130E500AE040F2FF1307E04FF6FF7304E047F6A1
S1130E60F81301E04FF27F733A68134103F0010372
S1130E70002B04D10B484FF44F71FFF7F1FAFA79C4
S1130E801346DB0013449B001C3303F1804303F53A
S1130E90C04318463968FFF7A7FF034618460837CA
S1130EA0BD4680BD2C13000080B582B000AF034660
S1130EB03960FB71FB79002B1ED0FB79012B18D014
S1130EC0FB79022B12D0FB79032B0CD0FB79042B7A
S1130ED006D0FB79052B01D13F230FE000230DE061
S1130EE04FF6F0730AE040F2FF1307E04FF6FF738A
S1130EF004E047F6F81301E04FF27F733A681341B8
S1130F0003F00103002B04D10A4840F25931FFF7E2
S1130F10A7FA0949FA793B68012000FA03F3184655
S1130F201346DB0013449B000B441033586008370E
S1130F30BD4680BD2C1300000060004080B582B027
S1130F4000AF03463960FB71FB79002B1ED0FB799F
S1130F50012B18D0FB79022B12D0FB79032B0CD078
S1130F60FB79042B06D0FB79052B01D13F230FE03D
S1130F7000230DE04FF6F0730AE040F2FF1307E0A0
S1130F804FF6FF7304E047F6F81301E04FF27F7366
S1130F903A68134103F00103002B04D10A4840F2DC
S1130FA08631FFF75DFA0949FA793B68012000FAB6
S1130FB003F318461346DB0013449B000B44103321
S1130FC018600837BD4680BD2C1300000060004047
S1130FD080B400AFBD465DF8047B704780B400AFB9
S1130FE0044B1B680133034A1360BD465DF8047B60
S1130FF0704700BF9400002080B485B000AF7860D3
S1131000074B1B68FB6000BF054B1A68FB68D21ACC
S11310107B689A42F8D31437BD465DF8047B704769
S11310209400002080B500AFFFF7D2FF1C480121D7
S1131030FFF780FB01200C2104220023FFF7E2FDCF
S11310400320082101220023FFF7DCFDFFF716F936
S11310501448FFF7D3FB0246134BA3FB02239B095F
S11310601846FFF79FFE0346002B00D0FEE703203F
S11310700821FFF7CFFE0346002B0FD101200C21DE
S1131080FFF75CFF40F6B830FFF7B6FF01200C21F4
S1131090FFF70AFF40F6B830FFF7AEFFE7E700BFFF
S11310A00062040050000200D34D621008B5074BE3
S11310B0044613B10021AFF30080054B1868836A1E
S11310C003B19847204600F033F800BF0000000049
S11310D0A81300000E4B70B51E460E4C0025E41AF2
S11310E0A410A54204D056F8253098470135F8E7F6
S11310F000F020F8084B094C1E46E41AA410002501
S1131100A54204D056F8253098470135F8E770BD5C
S11311106C0000206C0000206C0000207000002097
S113112003460244934202D003F8011BFAE77047D6
S1131130FEE700BFF8B500BFF8BC08BC9E46704788
S1131140F8B500BFF8BC08BC9E4670472F417070CC
S11311506C69636174696F6E732F53696D706C6928
S1131160636974792053747564696F2E6170702F8C
S1131170436F6E74656E74732F45636C6970736529
S11311802F646576656C6F7065722F73646B732F53
S11311906765636B6F5F73646B5F73756974652FE9
S11311A076312E312F2F706C6174666F726D2F65DE
S11311B06D6C69622F696E632F656D5F636D752E4B
S11311C0680000002F4170706C69636174696F6E10
S11311D0732F53696D706C696369747920537475E6
S11311E064696F2E6170702F436F6E74656E7473D3
S11311F02F45636C697073652F646576656C6F70D9
S113120065722F73646B732F6765636B6F5F7364B1
S11312106B5F73756974652F76312E312F706C6135
S113122074666F726D2F656D6C69622F7372632FB4
S1131230656D5F636D752E63000000002F41707053
S11312406C69636174696F6E732F53696D706C6937
S1131250636974792053747564696F2E6170702F9B
S1131260436F6E74656E74732F45636C6970736538
S11312702F646576656C6F7065722F73646B732F62
S11312806765636B6F5F73646B5F73756974652FF8
S113129076312E312F2F706C6174666F726D2F65ED
S11312A06D6C69622F696E632F656D5F6770696F1E
S11312B02E6800002F4170706C69636174696F6EF1
S11312C0732F53696D706C696369747920537475F5
S11312D064696F2E6170702F436F6E74656E7473E2
S11312E02F45636C697073652F646576656C6F70E8
S11312F065722F73646B732F6765636B6F5F7364C1
S11313006B5F73756974652F76312E312F706C6144
S113131074666F726D2F656D6C69622F7372632FC3
S1131320656D5F6770696F2E630000002F417070F8
S11313306C69636174696F6E732F53696D706C6946
S1131340636974792053747564696F2E6170702FAA
S1131350436F6E74656E74732F45636C6970736547
S11313602F646576656C6F7065722F73646B732F71
S11313706765636B6F5F73646B5F73756974652F07
S113138076312E312F2F706C6174666F726D2F65FC
S11313906D6C69622F696E632F656D5F6770696F2D
S11313A02E680043000000000C0000200000000034
S10B13B048EDFF7F010000007D
S11313B80048E80100800000809FD500000000007C
S11313C80000000000000000000000000000000011
S11313D8000000000000000000000000A31300004B
S11313E800000000000000000000000000000000F1
S11313F800000000000000000000000000000000E1
S113140800000000000000000000000000000000D0
S1131418000000000000000000000000C1000000FF
S10B14289D000000000000001B
S90302A555
